{
  "_format": "hh-sol-artifact-1",
  "contractName": "Bank",
  "sourceName": "contracts/BankContract.sol",
  "abi": [
    {
      "inputs": [],
      "stateMutability": "nonpayable",
      "type": "constructor"
    },
    {
      "anonymous": false,
      "inputs": [
        {
          "indexed": true,
          "internalType": "address",
          "name": "from",
          "type": "address"
        },
        {
          "indexed": true,
          "internalType": "uint256",
          "name": "amount",
          "type": "uint256"
        }
      ],
      "name": "Deposit",
      "type": "event"
    },
    {
      "anonymous": false,
      "inputs": [
        {
          "indexed": true,
          "internalType": "address",
          "name": "to",
          "type": "address"
        },
        {
          "indexed": true,
          "internalType": "address",
          "name": "from",
          "type": "address"
        },
        {
          "indexed": true,
          "internalType": "uint256",
          "name": "amount",
          "type": "uint256"
        }
      ],
      "name": "Withdrawal",
      "type": "event"
    },
    {
      "inputs": [
        {
          "internalType": "address",
          "name": "",
          "type": "address"
        }
      ],
      "name": "balanceOf",
      "outputs": [
        {
          "internalType": "uint256",
          "name": "",
          "type": "uint256"
        }
      ],
      "stateMutability": "view",
      "type": "function"
    },
    {
      "inputs": [],
      "name": "bankName",
      "outputs": [
        {
          "internalType": "string",
          "name": "",
          "type": "string"
        }
      ],
      "stateMutability": "view",
      "type": "function"
    },
    {
      "inputs": [],
      "name": "bankOwner",
      "outputs": [
        {
          "internalType": "address",
          "name": "",
          "type": "address"
        }
      ],
      "stateMutability": "view",
      "type": "function"
    },
    {
      "inputs": [],
      "name": "depositMoney",
      "outputs": [],
      "stateMutability": "payable",
      "type": "function"
    },
    {
      "inputs": [],
      "name": "getBankBalance",
      "outputs": [
        {
          "internalType": "uint256",
          "name": "",
          "type": "uint256"
        }
      ],
      "stateMutability": "view",
      "type": "function"
    },
    {
      "inputs": [],
      "name": "getbalanceOf",
      "outputs": [
        {
          "internalType": "uint256",
          "name": "",
          "type": "uint256"
        }
      ],
      "stateMutability": "view",
      "type": "function"
    },
    {
      "inputs": [
        {
          "internalType": "string",
          "name": "_name",
          "type": "string"
        }
      ],
      "name": "setBankName",
      "outputs": [],
      "stateMutability": "nonpayable",
      "type": "function"
    },
    {
      "inputs": [
        {
          "internalType": "address payable",
          "name": "_to",
          "type": "address"
        },
        {
          "internalType": "uint256",
          "name": "_total",
          "type": "uint256"
        }
      ],
      "name": "withdrawMoney",
      "outputs": [],
      "stateMutability": "nonpayable",
      "type": "function"
    }
  ],
  "bytecode": "0x608060405234801561001057600080fd5b50336000806101000a81548173ffffffffffffffffffffffffffffffffffffffff021916908373ffffffffffffffffffffffffffffffffffffffff160217905550610ee7806100606000396000f3fe60806040526004361061007b5760003560e01c806370a082311161004e57806370a08231146101095780637b83b50b14610146578063e147aaa714610171578063f274c8971461019c5761007b565b806316c05aa21461008057806327d358011461008a578063402a71d7146100b557806370142690146100e0575b600080fd5b6100886101c5565b005b34801561009657600080fd5b5061009f6102a5565b6040516100ac91906109fe565b60405180910390f35b3480156100c157600080fd5b506100ca610333565b6040516100d79190610aa0565b60405180910390f35b3480156100ec57600080fd5b5061010760048036038101906101029190610887565b61037a565b005b34801561011557600080fd5b50610130600480360381019061012b9190610822565b610422565b60405161013d9190610aa0565b60405180910390f35b34801561015257600080fd5b5061015b61043a565b6040516101689190610aa0565b60405180910390f35b34801561017d57600080fd5b506101866104d0565b60405161019391906109e3565b60405180910390f35b3480156101a857600080fd5b506101c360048036038101906101be919061084b565b6104f4565b005b6000341415610209576040517f08c379a000000000000000000000000000000000000000000000000000000000815260040161020090610a40565b60405180910390fd5b34600260003373ffffffffffffffffffffffffffffffffffffffff1673ffffffffffffffffffffffffffffffffffffffff16815260200190815260200160002060008282546102589190610b38565b92505081905550343373ffffffffffffffffffffffffffffffffffffffff167fe1fffcc4923d04b559f4d29a8bfc6cda04eb5b0d3c460751c2402c5c5cc9109c60405160405180910390a3565b600180546102b290610c52565b80601f01602080910402602001604051908101604052809291908181526020018280546102de90610c52565b801561032b5780601f106103005761010080835404028352916020019161032b565b820191906000526020600020905b81548152906001019060200180831161030e57829003601f168201915b505050505081565b6000600260003373ffffffffffffffffffffffffffffffffffffffff1673ffffffffffffffffffffffffffffffffffffffff16815260200190815260200160002054905090565b3373ffffffffffffffffffffffffffffffffffffffff1660008054906101000a900473ffffffffffffffffffffffffffffffffffffffff1673ffffffffffffffffffffffffffffffffffffffff1614610408576040517f08c379a00000000000000000000000000000000000000000000000000000000081526004016103ff90610a80565b60405180910390fd5b806001908051906020019061041e9291906106d8565b5050565b60026020528060005260406000206000915090505481565b60003373ffffffffffffffffffffffffffffffffffffffff1660008054906101000a900473ffffffffffffffffffffffffffffffffffffffff1673ffffffffffffffffffffffffffffffffffffffff16146104ca576040517f08c379a00000000000000000000000000000000000000000000000000000000081526004016104c190610a80565b60405180910390fd5b47905090565b60008054906101000a900473ffffffffffffffffffffffffffffffffffffffff1681565b600260003373ffffffffffffffffffffffffffffffffffffffff1673ffffffffffffffffffffffffffffffffffffffff16815260200190815260200160002054811115610576576040517f08c379a000000000000000000000000000000000000000000000000000000000815260040161056d90610a20565b60405180910390fd5b80600260003373ffffffffffffffffffffffffffffffffffffffff1673ffffffffffffffffffffffffffffffffffffffff16815260200190815260200160002060008282546105c59190610b8e565b9250508190555060008273ffffffffffffffffffffffffffffffffffffffff16826040516105f2906109ce565b60006040518083038185875af1925050503d806000811461062f576040519150601f19603f3d011682016040523d82523d6000602084013e610634565b606091505b5050905080610678576040517f08c379a000000000000000000000000000000000000000000000000000000000815260040161066f90610a60565b60405180910390fd5b813373ffffffffffffffffffffffffffffffffffffffff168473ffffffffffffffffffffffffffffffffffffffff167f2717ead6b9200dd235aad468c9809ea400fe33ac69b5bfaa6d3e90fc922b639860405160405180910390a4505050565b8280546106e490610c52565b90600052602060002090601f016020900481019282610706576000855561074d565b82601f1061071f57805160ff191683800117855561074d565b8280016001018555821561074d579182015b8281111561074c578251825591602001919060010190610731565b5b50905061075a919061075e565b5090565b5b8082111561077757600081600090555060010161075f565b5090565b600061078e61078984610ae0565b610abb565b9050828152602081018484840111156107a657600080fd5b6107b1848285610c10565b509392505050565b6000813590506107c881610e6c565b92915050565b6000813590506107dd81610e83565b92915050565b600082601f8301126107f457600080fd5b813561080484826020860161077b565b91505092915050565b60008135905061081c81610e9a565b92915050565b60006020828403121561083457600080fd5b6000610842848285016107b9565b91505092915050565b6000806040838503121561085e57600080fd5b600061086c858286016107ce565b925050602061087d8582860161080d565b9150509250929050565b60006020828403121561089957600080fd5b600082013567ffffffffffffffff8111156108b357600080fd5b6108bf848285016107e3565b91505092915050565b6108d181610bc2565b82525050565b60006108e282610b11565b6108ec8185610b27565b93506108fc818560208601610c1f565b61090581610d42565b840191505092915050565b600061091d602583610b27565b915061092882610d53565b604082019050919050565b6000610940602983610b27565b915061094b82610da2565b604082019050919050565b6000610963601683610b27565b915061096e82610df1565b602082019050919050565b6000610986600083610b1c565b915061099182610e1a565b600082019050919050565b60006109a9602183610b27565b91506109b482610e1d565b604082019050919050565b6109c881610c06565b82525050565b60006109d982610979565b9150819050919050565b60006020820190506109f860008301846108c8565b92915050565b60006020820190508181036000830152610a1881846108d7565b905092915050565b60006020820190508181036000830152610a3981610910565b9050919050565b60006020820190508181036000830152610a5981610933565b9050919050565b60006020820190508181036000830152610a7981610956565b9050919050565b60006020820190508181036000830152610a998161099c565b9050919050565b6000602082019050610ab560008301846109bf565b92915050565b6000610ac5610ad6565b9050610ad18282610c84565b919050565b6000604051905090565b600067ffffffffffffffff821115610afb57610afa610d13565b5b610b0482610d42565b9050602081019050919050565b600081519050919050565b600081905092915050565b600082825260208201905092915050565b6000610b4382610c06565b9150610b4e83610c06565b9250827fffffffffffffffffffffffffffffffffffffffffffffffffffffffffffffffff03821115610b8357610b82610cb5565b5b828201905092915050565b6000610b9982610c06565b9150610ba483610c06565b925082821015610bb757610bb6610cb5565b5b828203905092915050565b6000610bcd82610be6565b9050919050565b6000610bdf82610be6565b9050919050565b600073ffffffffffffffffffffffffffffffffffffffff82169050919050565b6000819050919050565b82818337600083830152505050565b60005b83811015610c3d578082015181840152602081019050610c22565b83811115610c4c576000848401525b50505050565b60006002820490506001821680610c6a57607f821691505b60208210811415610c7e57610c7d610ce4565b5b50919050565b610c8d82610d42565b810181811067ffffffffffffffff82111715610cac57610cab610d13565b5b80604052505050565b7f4e487b7100000000000000000000000000000000000000000000000000000000600052601160045260246000fd5b7f4e487b7100000000000000000000000000000000000000000000000000000000600052602260045260246000fd5b7f4e487b7100000000000000000000000000000000000000000000000000000000600052604160045260246000fd5b6000601f19601f8301169050919050565b7f596f75206861766520696e7375666669656e742066756e647320746f2077697460008201527f6864726177000000000000000000000000000000000000000000000000000000602082015250565b7f596f75206e65656420746f206465706f73697420736f6d6520616d6f756e742060008201527f6f66206d6f6e6579210000000000000000000000000000000000000000000000602082015250565b7f7769746864726177206d6f6e6579206661696c65642e00000000000000000000600082015250565b50565b7f4f6e6c79207468652042616e6b204f776e657220697320617574686f72697a6560008201527f6400000000000000000000000000000000000000000000000000000000000000602082015250565b610e7581610bc2565b8114610e8057600080fd5b50565b610e8c81610bd4565b8114610e9757600080fd5b50565b610ea381610c06565b8114610eae57600080fd5b5056fea26469706673582212202a69c0a85d7f19e10e0ccc9b489724346941fc988597684ae2cad1c0ccf7636f64736f6c63430008040033",
  "linkReferences": {},
  "deployedLinkReferences": {}
}