{
  "_format": "hh-sol-artifact-1",
  "contractName": "Bank",
  "sourceName": "contracts/BankContract.sol",
  "abi": [
    {
      "inputs": [],
      "stateMutability": "nonpayable",
      "type": "constructor"
    },
    {
      "inputs": [
        {
          "internalType": "address",
          "name": "",
          "type": "address"
        }
      ],
      "name": "balanceOf",
      "outputs": [
        {
          "internalType": "uint256",
          "name": "",
          "type": "uint256"
        }
      ],
      "stateMutability": "view",
      "type": "function"
    },
    {
      "inputs": [],
      "name": "bankName",
      "outputs": [
        {
          "internalType": "string",
          "name": "",
          "type": "string"
        }
      ],
      "stateMutability": "view",
      "type": "function"
    },
    {
      "inputs": [],
      "name": "bankOwner",
      "outputs": [
        {
          "internalType": "address",
          "name": "",
          "type": "address"
        }
      ],
      "stateMutability": "view",
      "type": "function"
    },
    {
      "inputs": [],
      "name": "depositMoney",
      "outputs": [],
      "stateMutability": "payable",
      "type": "function"
    },
    {
      "inputs": [],
      "name": "getBankBalance",
      "outputs": [
        {
          "internalType": "uint256",
          "name": "",
          "type": "uint256"
        }
      ],
      "stateMutability": "view",
      "type": "function"
    },
    {
      "inputs": [],
      "name": "getbalanceOf",
      "outputs": [
        {
          "internalType": "uint256",
          "name": "",
          "type": "uint256"
        }
      ],
      "stateMutability": "view",
      "type": "function"
    },
    {
      "inputs": [
        {
          "internalType": "string",
          "name": "_name",
          "type": "string"
        }
      ],
      "name": "setBankName",
      "outputs": [],
      "stateMutability": "nonpayable",
      "type": "function"
    },
    {
      "inputs": [
        {
          "internalType": "address payable",
          "name": "_to",
          "type": "address"
        },
        {
          "internalType": "uint256",
          "name": "_total",
          "type": "uint256"
        }
      ],
      "name": "withdrawMoney",
      "outputs": [],
      "stateMutability": "nonpayable",
      "type": "function"
    }
  ],
  "bytecode": "0x608060405234801561001057600080fd5b50336000806101000a81548173ffffffffffffffffffffffffffffffffffffffff021916908373ffffffffffffffffffffffffffffffffffffffff160217905550610edb806100606000396000f3fe60806040526004361061007b5760003560e01c806370a082311161004e57806370a08231146101095780637b83b50b14610146578063e147aaa714610171578063f274c8971461019c5761007b565b806316c05aa21461008057806327d358011461008a578063402a71d7146100b557806370142690146100e0575b600080fd5b6100886101c5565b005b34801561009657600080fd5b5061009f610261565b6040516100ac9190610983565b60405180910390f35b3480156100c157600080fd5b506100ca6102ef565b6040516100d79190610a45565b60405180910390f35b3480156100ec57600080fd5b50610107600480360381019061010291906107e9565b610336565b005b34801561011557600080fd5b50610130600480360381019061012b9190610784565b6103de565b60405161013d9190610a45565b60405180910390f35b34801561015257600080fd5b5061015b6103f6565b6040516101689190610a45565b60405180910390f35b34801561017d57600080fd5b5061018661048d565b6040516101939190610968565b60405180910390f35b3480156101a857600080fd5b506101c360048036038101906101be91906107ad565b6104b1565b005b6000341415610209576040517f08c379a0000000000000000000000000000000000000000000000000000000008152600401610200906109c5565b60405180910390fd5b34600260003373ffffffffffffffffffffffffffffffffffffffff1673ffffffffffffffffffffffffffffffffffffffff16815260200190815260200160002060008282546102589190610add565b92505081905550565b6001805461026e90610bf7565b80601f016020809104026020016040519081016040528092919081815260200182805461029a90610bf7565b80156102e75780601f106102bc576101008083540402835291602001916102e7565b820191906000526020600020905b8154815290600101906020018083116102ca57829003601f168201915b505050505081565b6000600260003373ffffffffffffffffffffffffffffffffffffffff1673ffffffffffffffffffffffffffffffffffffffff16815260200190815260200160002054905090565b60008054906101000a900473ffffffffffffffffffffffffffffffffffffffff1673ffffffffffffffffffffffffffffffffffffffff163373ffffffffffffffffffffffffffffffffffffffff16146103c4576040517f08c379a00000000000000000000000000000000000000000000000000000000081526004016103bb90610a05565b60405180910390fd5b80600190805190602001906103da92919061063a565b5050565b60026020528060005260406000206000915090505481565b60008060009054906101000a900473ffffffffffffffffffffffffffffffffffffffff1673ffffffffffffffffffffffffffffffffffffffff163373ffffffffffffffffffffffffffffffffffffffff1614610487576040517f08c379a000000000000000000000000000000000000000000000000000000000815260040161047e90610a25565b60405180910390fd5b47905090565b60008054906101000a900473ffffffffffffffffffffffffffffffffffffffff1681565b600260003373ffffffffffffffffffffffffffffffffffffffff1673ffffffffffffffffffffffffffffffffffffffff16815260200190815260200160002054811115610533576040517f08c379a000000000000000000000000000000000000000000000000000000000815260040161052a906109a5565b60405180910390fd5b80600260003373ffffffffffffffffffffffffffffffffffffffff1673ffffffffffffffffffffffffffffffffffffffff16815260200190815260200160002060008282546105829190610b33565b9250508190555060008273ffffffffffffffffffffffffffffffffffffffff16826040516105af90610953565b60006040518083038185875af1925050503d80600081146105ec576040519150601f19603f3d011682016040523d82523d6000602084013e6105f1565b606091505b5050905080610635576040517f08c379a000000000000000000000000000000000000000000000000000000000815260040161062c906109e5565b60405180910390fd5b505050565b82805461064690610bf7565b90600052602060002090601f01602090048101928261066857600085556106af565b82601f1061068157805160ff19168380011785556106af565b828001600101855582156106af579182015b828111156106ae578251825591602001919060010190610693565b5b5090506106bc91906106c0565b5090565b5b808211156106d95760008160009055506001016106c1565b5090565b60006106f06106eb84610a85565b610a60565b90508281526020810184848401111561070857600080fd5b610713848285610bb5565b509392505050565b60008135905061072a81610e60565b92915050565b60008135905061073f81610e77565b92915050565b600082601f83011261075657600080fd5b81356107668482602086016106dd565b91505092915050565b60008135905061077e81610e8e565b92915050565b60006020828403121561079657600080fd5b60006107a48482850161071b565b91505092915050565b600080604083850312156107c057600080fd5b60006107ce85828601610730565b92505060206107df8582860161076f565b9150509250929050565b6000602082840312156107fb57600080fd5b600082013567ffffffffffffffff81111561081557600080fd5b61082184828501610745565b91505092915050565b61083381610b67565b82525050565b600061084482610ab6565b61084e8185610acc565b935061085e818560208601610bc4565b61086781610ce7565b840191505092915050565b600061087f602583610acc565b915061088a82610cf8565b604082019050919050565b60006108a2602983610acc565b91506108ad82610d47565b604082019050919050565b60006108c5601683610acc565b91506108d082610d96565b602082019050919050565b60006108e8600083610ac1565b91506108f382610dbf565b600082019050919050565b600061090b603183610acc565b915061091682610dc2565b604082019050919050565b600061092e603683610acc565b915061093982610e11565b604082019050919050565b61094d81610bab565b82525050565b600061095e826108db565b9150819050919050565b600060208201905061097d600083018461082a565b92915050565b6000602082019050818103600083015261099d8184610839565b905092915050565b600060208201905081810360008301526109be81610872565b9050919050565b600060208201905081810360008301526109de81610895565b9050919050565b600060208201905081810360008301526109fe816108b8565b9050919050565b60006020820190508181036000830152610a1e816108fe565b9050919050565b60006020820190508181036000830152610a3e81610921565b9050919050565b6000602082019050610a5a6000830184610944565b92915050565b6000610a6a610a7b565b9050610a768282610c29565b919050565b6000604051905090565b600067ffffffffffffffff821115610aa057610a9f610cb8565b5b610aa982610ce7565b9050602081019050919050565b600081519050919050565b600081905092915050565b600082825260208201905092915050565b6000610ae882610bab565b9150610af383610bab565b9250827fffffffffffffffffffffffffffffffffffffffffffffffffffffffffffffffff03821115610b2857610b27610c5a565b5b828201905092915050565b6000610b3e82610bab565b9150610b4983610bab565b925082821015610b5c57610b5b610c5a565b5b828203905092915050565b6000610b7282610b8b565b9050919050565b6000610b8482610b8b565b9050919050565b600073ffffffffffffffffffffffffffffffffffffffff82169050919050565b6000819050919050565b82818337600083830152505050565b60005b83811015610be2578082015181840152602081019050610bc7565b83811115610bf1576000848401525b50505050565b60006002820490506001821680610c0f57607f821691505b60208210811415610c2357610c22610c89565b5b50919050565b610c3282610ce7565b810181811067ffffffffffffffff82111715610c5157610c50610cb8565b5b80604052505050565b7f4e487b7100000000000000000000000000000000000000000000000000000000600052601160045260246000fd5b7f4e487b7100000000000000000000000000000000000000000000000000000000600052602260045260246000fd5b7f4e487b7100000000000000000000000000000000000000000000000000000000600052604160045260246000fd5b6000601f19601f8301169050919050565b7f596f75206861766520696e7375666669656e742066756e647320746f2077697460008201527f6864726177000000000000000000000000000000000000000000000000000000602082015250565b7f596f75206e65656420746f206465706f73697420736f6d6520616d6f756e742060008201527f6f66206d6f6e6579210000000000000000000000000000000000000000000000602082015250565b7f7769746864726177206d6f6e6579206661696c65642e00000000000000000000600082015250565b50565b7f596f75206d75737420626520746865206f776e657220746f207365742074686560008201527f206e616d65206f66207468652062616e6b000000000000000000000000000000602082015250565b7f596f75206d75737420626520746865206f776e6572206f66207468652062616e60008201527f6b20746f2073656520616c6c2062616c616e6365732e00000000000000000000602082015250565b610e6981610b67565b8114610e7457600080fd5b50565b610e8081610b79565b8114610e8b57600080fd5b50565b610e9781610bab565b8114610ea257600080fd5b5056fea2646970667358221220e57d1bb6a41512e56c8a34fa76ed47aa1dca4abd11de4e4e7305d690f9a3ea4464736f6c63430008040033",
  "linkReferences": {},
  "deployedLinkReferences": {}
}